:020000040800F2
:1000000000500020891A000821180008271800084D
:100010002D180008331800083918000800000000E7
:100020000000000000000000000000003F18000871
:100030004B1800080000000057180008631800085B
:10004000D11A0008D11A0008D11A0008D11A0008E4
:10005000D11A0008D11A0008D11A0008D11A0008D4
:10006000D11A0008D11A0008D11A0008D11A0008C4
:10007000D11A0008D11A0008711800088518000864
:1000800099180008AD180008D11A0008D11A000804
:10009000D11A0008D11A0008D11A0008D11A000894
:1000A000D11A0008D11A0008D11A0008D11A000884
:1000B000D11A0008D11A0008D11A0008C118000886
:1000C000D5180008D11A0008D11A0008D11A000862
:1000D000D11A0008E9180008D11A0008D11A00083E
:1000E000D11A0008D11A0008D11A00080000000037
:1000F0000000000000000000000000000000000000
:0C01000000000000000000005FF808F1A3
:1001100010B5054C237833B9044B13B10448AFF341
:1001200000800123237010BDE401002000000000C6
:10013000E091000808B5034B1BB103490348AFF336
:10014000008008BD00000000E8010020E0910008E8
:10015000034613F8012B002AFBD1181A0138704707
:1001600081F0004102E000BF83F0004330B54FEA68
:1001700041044FEA430594EA050F08BF90EA020FD5
:100180001FBF54EA000C55EA020C7FEA645C7FEA68
:10019000655C00F0E2804FEA5454D4EB5555B8BF8B
:1001A0006D420CDD2C4480EA020281EA030382EAFC
:1001B000000083EA010180EA020281EA0303362D8E
:1001C00088BF30BD11F0004F4FEA01314FF4801C61
:1001D0004CEA113102D0404261EB410113F0004F73
:1001E0004FEA03334CEA133302D0524263EB43032A
:1001F00094EA050F00F0A780A4F10104D5F1200EC8
:100200000DDB02FA0EFC22FA05F2801841F1000122
:1002100003FA0EF2801843FA05F359410EE0A5F1F6
:1002200020050EF1200E012A03FA0EFC28BF4CF027
:10023000020C43FA05F3C01851EBE37101F00045DD
:1002400007D54FF0000EDCF1000C7EEB00006EEBEA
:100250000101B1F5801F1BD3B1F5001F0CD3490874
:100260005FEA30004FEA3C0C04F101044FEA4452CB
:1002700012F5800F80F09A80BCF1004F08BF5FEA52
:10028000500C50F1000041EB045141EA050130BD32
:100290005FEA4C0C404141EB0101013C28BFB1F544
:1002A000801FE9D291F0000F04BF01460020B1FA8F
:1002B00081F308BF2033A3F10B03B3F120020CDA62
:1002C0000C3208DD02F1140CC2F10C0201FA0CF040
:1002D00021FA02F10CE002F11402D8BFC2F1200CA5
:1002E00001FA02F120FA0CFCDCBF41EA0C0190405B
:1002F000E41AA2BF01EB0451294330BD6FEA0404A4
:100300001F3C1CDA0C340EDC04F11404C4F120028E
:1003100020FA04F001FA02F340EA030021FA04F3A0
:1003200045EA030130BDC4F10C04C4F1200220FAF7
:1003300002F001FA04F340EA0300294630BD21FA35
:1003400004F0294630BD94F0000F83F4801306BFFB
:1003500081F480110134013D4EE77FEA645C18BFEF
:100360007FEA655C29D094EA050F08BF90EA020F86
:1003700005D054EA000C04BF1946104630BD91EA7E
:10038000030F1EBF0021002030BD5FEA545C05D181
:100390004000494128BF41F0004130BD14F58004C0
:1003A0003CBF01F5801130BD01F0004545F0FE4134
:1003B00041F470014FF0000030BD7FEA645C1ABF69
:1003C000194610467FEA655C1CBF0B46024650EAA0
:1003D000013406BF52EA033591EA030F41F40021CC
:1003E00030BD00BF90F0000F04BF0021704730B552
:1003F0004FF4806404F132044FF000054FF0000127
:1004000050E700BF90F0000F04BF0021704730B5E7
:100410004FF4806404F1320410F0004548BF4042BC
:100420004FF000013EE700BF42004FEAE2014FEA11
:1004300031014FEA02701FBF12F07F4393F07F4FEC
:1004400081F06051704732F07F4208BF704793F0EF
:100450007F4F04BF41F40021704730B54FF4607402
:1004600001F0004521F000411CE700BF50EA010205
:1004700008BF704730B54FF000050AE050EA0102AE
:1004800008BF704730B511F0004502D5404261EB1E
:1004900041014FF4806404F132045FEA915C3FF45F
:1004A000D8AE4FF003025FEADC0C18BF03325FEAFC
:1004B000DC0C18BF033202EBDC02C2F1200300FAAD
:1004C00003FC20FA02F001FA03FE40EA0E0021FAD2
:1004D00002F11444BDE600BF70B54FF0FF0C4CF4C0
:1004E000E06C1CEA11541DBF1CEA135594EA0C0F72
:1004F00095EA0C0F00F0DEF82C4481EA030621EAAD
:100500004C5123EA4C5350EA013518BF52EA0335E7
:1005100041F4801143F4801338D0A0FB02CE4FF099
:100520000005E1FB02E506F00042E0FB03E54FF0C9
:100530000006E1FB03569CF0000F18BF4EF0010EC1
:10054000A4F1FF04B6F5007F64F5407404D25FEABD
:100550004E0E6D4146EB060642EAC62141EA555170
:100560004FEAC52040EA5E504FEACE2EB4F1FD0CB2
:1005700088BFBCF5E06F1ED8BEF1004F08BF5FEA30
:10058000500E50F1000041EB045170BD06F00046E2
:1005900046EA010140EA020081EA0301B4EB5C048F
:1005A000C2BFD4EB0C0541EA045170BD41F4801187
:1005B0004FF0000E013C00F3AB8014F1360FDEBFAC
:1005C000002001F0004170BDC4F10004203C35DA88
:1005D0000C341BDC04F11404C4F1200500FA05F30B
:1005E00020FA04F001FA05F240EA020001F00042AC
:1005F00021F0004110EBD37021FA04F642EB060122
:100600005EEA430E08BF20EAD37070BDC4F10C044B
:10061000C4F1200500FA04F320FA05F001FA04F20F
:1006200040EA020001F0004110EBD37041F10001FB
:100630005EEA430E08BF20EAD37070BDC4F1200506
:1006400000FA05F24EEA020E20FA04F301FA05F26E
:1006500043EA020321FA04F001F0004121FA04F216
:1006600020EA020000EBD3705EEA430E08BF20EAE6
:10067000D37070BD94F0000F0FD101F00046400020
:1006800041EB010111F4801F08BF013CF7D041EAA2
:10069000060195F0000F18BF704703F000465200A6
:1006A00043EB030313F4801F08BF013DF7D043EA77
:1006B0000603704794EA0C0F0CEA135518BF95EA2D
:1006C0000C0F0CD050EA410618BF52EA4306D1D1B4
:1006D00081EA030101F000414FF0000070BD50EAD3
:1006E000410606BF1046194652EA430619D094EA5D
:1006F0000C0F02D150EA013613D195EA0C0F05D147
:1007000052EA03361CBF104619460AD181EA03019A
:1007100001F0004141F0FE4141F470014FF0000052
:1007200070BD41F0FE4141F4780170BD70B54FF0ED
:10073000FF0C4CF4E06C1CEA11541DBF1CEA13556D
:1007400094EA0C0F95EA0C0F00F0A7F8A4EB05044F
:1007500081EA030E52EA03354FEA013100F0888046
:100760004FEA03334FF0805545EA131343EA12630F
:100770004FEA022245EA111545EA10654FEA0026C4
:100780000EF000419D4208BF964244F1FD0404F57D
:10079000407402D25B084FEA3202B61A65EB0305D9
:1007A0005B084FEA32024FF480104FF4002CB6EB96
:1007B000020E75EB030E22BFB61A754640EA0C0016
:1007C0005B084FEA3202B6EB020E75EB030E22BF56
:1007D000B61A754640EA5C005B084FEA3202B6EB97
:1007E000020E75EB030E22BFB61A754640EA9C0056
:1007F0005B084FEA3202B6EB020E75EB030E22BF26
:10080000B61A754640EADC0055EA060E18D04FEAE3
:10081000051545EA16754FEA06164FEAC30343EA83
:1008200052734FEAC2025FEA1C1CC0D111F4801F50
:100830000BD141EA00014FF000004FF0004CB6E749
:1008400011F4801F04BF01430020B4F1FD0C88BFE8
:10085000BCF5E06F3FF6AFAEB5EB030C04BFB6EBF3
:10086000020C5FEA500C50F1000041EB045170BDE6
:100870000EF0004E4EEA113114EB5C04C2BFD4EB13
:100880000C0541EA045170BD41F480114FF0000E97
:10089000013C90E645EA060E8DE60CEA135594EA13
:1008A0000C0F08BF95EA0C0F3FF43BAF94EA0C0F16
:1008B0000AD150EA01347FF434AF95EA0C0F7FF48B
:1008C00025AF104619462CE795EA0C0F06D152EADF
:1008D00003353FF4FDAE1046194622E750EA4106C3
:1008E00018BF52EA43067FF4C5AE50EA41047FF4D4
:1008F0000DAF52EA43057FF4EBAE12E74FF0FF3C39
:1009000006E000BF4FF0010C02E000BF4FF0010C09
:100910004DF804CD4FEA410C7FEA6C5C4FEA430C82
:1009200018BF7FEA6C5C1BD001B050EA410C0CBFD1
:1009300052EA430C91EA030F02BF90EA020F002033
:10094000704710F1000F91EA030F58BF994208BF9A
:1009500090422CBFD8176FEAE37040F00100704757
:100960004FEA410C7FEA6C5C02D150EA013C07D1AE
:100970004FEA430C7FEA6C5CD6D152EA033CD3D0F9
:100980005DF8040B704700BF8446104662468C46F3
:100990001946634600E000BF01B5FFF7B7FF002826
:1009A00048BF10F1000F01BD4DF808EDFFF7F4FF4F
:1009B0000CBF012000205DF808FB00BF4DF808EDDA
:1009C000FFF7EAFF34BF012000205DF808FB00BFFD
:1009D0004DF808EDFFF7E0FF94BF012000205DF81F
:1009E00008FB00BF4DF808EDFFF7CEFF94BF0120D4
:1009F00000205DF808FB00BF4DF808EDFFF7C4FFCD
:100A000034BF012000205DF808FB00BF4FEA410C15
:100A10007FEA6C5C02D150EA013C0AD14FEA430CF8
:100A20007FEA6C5C02D152EA033C02D14FF0000035
:100A300070474FF0010070474FEA410212F5001273
:100A400015D211D56FF47873B3EB625212D94FEA15
:100A5000C12343F0004343EA505311F0004F23FAFF
:100A600002F018BF404270474FF00000704750EA54
:100A7000013005D111F0004008BF6FF00040704711
:100A80004FF00000704700BF80F0004002E000BF60
:100A900081F0004142001FBF5FEA410392EA030F69
:100AA0007FEA226C7FEA236C6AD04FEA1262D2EBB3
:100AB0001363C1BFD218414048404140B8BF5B42B8
:100AC000192B88BF704710F0004F40F4000020F051
:100AD0007F4018BF404211F0004F41F4000121F067
:100AE0007F4118BF494292EA030F3FD0A2F10102B1
:100AF00041FA03FC10EB0C00C3F1200301FA03F1EF
:100B000000F0004302D5494260EB4000B0F5000F11
:100B100013D3B0F1807F06D340084FEA310102F1D0
:100B20000102FE2A51D2B1F1004F40EBC25008BF82
:100B300020F0010040EA03007047490040EB00004C
:100B4000013A28BFB0F5000FEDD2B0FA80FCACF14D
:100B5000080CB2EB0C0200FA0CF0AABF00EBC2507A
:100B600052421843BCBFD0401843704792F0000F68
:100B700081F4000106BF80F400000132013BB5E7BB
:100B80004FEA41037FEA226C18BF7FEA236C21D031
:100B900092EA030F04D092F0000F08BF0846704796
:100BA00090EA010F1CBF0020704712F07F4F04D164
:100BB000400028BF40F00040704712F100723CBF77
:100BC00000F50000704700F0004343F0FE4040F4A1
:100BD000000070477FEA226216BF08467FEA23635F
:100BE0000146420206BF5FEA412390EA010F40F44A
:100BF000800070474FF0000304E000BF10F0004396
:100C000048BF40425FEA000C08BF704743F096437C
:100C100001464FF000001CE050EA010208BF704797
:100C20004FF000030AE000BF50EA010208BF70471E
:100C300011F0004302D5404261EB41015FEA010C33
:100C400002BF84460146002043F0B64308BFA3F12B
:100C50008053A3F50003BCFA8CF2083AA3EBC2530D
:100C600010DB01FA02FC634400FA02FCC2F120022C
:100C7000BCF1004F20FA02F243EB020008BF20F063
:100C80000100704702F1200201FA02FCC2F12002C9
:100C900050EA4C0021FA02F243EB020008BF20EABE
:100CA000DC7070474FF0FF0C1CEAD0521EBF1CEAEC
:100CB000D15392EA0C0F93EA0C0F6FD01A4480EADA
:100CC000010C400218BF5FEA41211ED04FF00063C3
:100CD00043EA501043EA5111A0FB01310CF00040EF
:100CE000B1F5000F3EBF490041EAD3715B0040EA15
:100CF000010062F17F02FD2A1DD8B3F1004F40EBE5
:100D0000C25008BF20F00100704790F0000F0CF0B7
:100D1000004C08BF49024CEA502040EA51207F3A7B
:100D2000C2BFD2F1FF0340EAC250704740F4000056
:100D30004FF00003013A5DDC12F1190FDCBF00F047
:100D400000407047C2F10002410021FA02F1C2F1F5
:100D5000200200FA02FC5FEA310040F1000053EA91
:100D60004C0308BF20EADC70704792F0000F00F0DF
:100D7000004C02BF400010F4000F013AF9D040EAE5
:100D80000C0093F0000F01F0004C02BF490011F479
:100D9000000F013BF9D041EA0C018FE70CEAD15377
:100DA00092EA0C0F18BF93EA0C0F0AD030F0004CF7
:100DB00018BF31F0004CD8D180EA010000F00040AB
:100DC000704790F0000F17BF90F0004F084691F069
:100DD000000F91F0004F14D092EA0C0F01D14202A3
:100DE0000FD193EA0C0F03D14B0218BF084608D16C
:100DF00080EA010000F0004040F0FE4040F40000B6
:100E0000704740F0FE4040F4400070474FF0FF0C48
:100E10001CEAD0521EBF1CEAD15392EA0C0F93EA8F
:100E20000C0F69D0A2EB030280EA010C49024FEAE1
:100E3000402037D04FF0805343EA111143EA10139A
:100E40000CF000408B4238BF5B0042F17D024FF452
:100E5000000C8B4224BF5B1A40EA0C00B3EB510F2D
:100E600024BFA3EB510340EA5C00B3EB910F24BF16
:100E7000A3EB910340EA9C00B3EBD10F24BFA3EB9B
:100E8000D10340EADC001B0118BF5FEA1C1CE0D163
:100E9000FD2A3FF650AF8B4240EBC25008BF20F016
:100EA000010070470CF0004C4CEA50207F32C2BF6A
:100EB000D2F1FF0340EAC250704740F400004FF007
:100EC0000003013A37E792F0000F00F0004C02BF38
:100ED000400010F4000F013AF9D040EA0C0093F002
:100EE000000F01F0004C02BF490011F4000F013B5C
:100EF000F9D041EA0C0195E70CEAD15392EA0C0FC4
:100F000008D142027FF47DAF93EA0C0F7FF470AFFB
:100F1000084676E793EA0C0F04D14B023FF44CAF3E
:100F200008466EE730F0004C18BF31F0004CCAD1D3
:100F300030F000427FF45CAF31F000437FF43CAF0F
:100F40005FE700BF80B590B004AF78603D23BB85FC
:100F500007F12C026423009302235021786801F0EA
:100F600031FC6423029301230193002300930123A6
:100F70003D225021786801F023FD642000F00CFE32
:100F800040F207133B8507F12802642300930223F4
:100F90005021786801F016FC642302930123019329
:100FA00001230093012307225021786801F008FDF6
:100FB000642000F0F1FD082387F82430684B1B788B
:100FC0005B015AB2674B1B789B005BB213435AB26A
:100FD000654B1B785BB213435BB2DBB287F82530FD
:100FE00007F124024FF0FF33009302235021786869
:100FF00001F0E8FB07F1240301336422029201228D
:1010000001920093012308225021786801F0D8FC56
:10101000642000F0C1FD0A2387F82030534B1B7871
:10102000DB005AB2524B1B785BB213435BB2DBB2AC
:1010300087F8213007F120024FF0FF33009302239D
:101040005021786801F0BEFB07F1240301336422CC
:10105000029201220192009301230A225021786812
:1010600001F0AEFC642000F097FD0B233B77414B71
:101070001B787B7707F11C024FF0FF3300930223AC
:101080005021786801F09EFB07F11C0301336422B4
:10109000029201220192009301230B2250217868D1
:1010A00001F08EFC642000F077FD00233B760923DD
:1010B0007B760123BB76304B1B785B015AB22F4BFA
:1010C0001B78DB005BB213435AB22D4B1B785BB22B
:1010D00013435BB2DBB2FB7607F118024FF0FF332C
:1010E000009304235021786801F06CFB642000F029
:1010F00053FD0723BB8207F114024FF0FF33009327
:1011000002235021786801F05DFB642000F044FD6B
:101110003E233B741B4B1B787B7407F110024FF08E
:10112000FF33009302235021786801F04BFB6420C9
:1011300000F032FD3D233B73134B1B787B7307F1AB
:101140000C024FF0FF33009302235021786801F026
:1011500039FB642000F020FD00BF3037BD4680BD64
:1011600002020020020000200100002000000020F8
:1011700001020020000200200302002003000020E2
:1011800004000020040200200500002080B588B083
:1011900004AF7860396064230293122301933B68A3
:1011A0000093012308225021786801F003FD0346D3
:1011B000FB7307F10F033B60FB7B18461037BD46FE
:1011C00080BD00002DE9B04396B004AF00F082FC72
:1011D00000F086F800F072F900F016F900F0BCF8A3
:1011E00000F0E8F83A48FFF7ADFE4FF4967000F0D3
:1011F000D3FC07F1280319463548FFF7C7FF97F8D6
:1012000029301B021AB297F828301BB213431BB2C5
:101210003B8497F82B301B021AB297F82A301BB286
:1012200013431BB27B8497F82D301B021AB297F838
:101230002C301BB213431BB2BB84B7F920301846C5
:10124000FFF7DCFC034623491846FFF7DFFD0346A2
:101250007B64B7F922301846FFF7D0FC03461D49DE
:101260001846FFF7D3FD03463B64B7F92430184610
:10127000FFF7C4FC034617491846FFF7C7FD0346AE
:10128000FB63786CFFF7D0F880468946386CFFF72F
:10129000CBF804460D46F86BFFF7C6F802460B463E
:1012A000381DCDE90223CDE9004542464B460A49A7
:1012B00005F01CFD3B1D1846FEF74AFF03469AB297
:1012C000391D4FF0FF33054804F0F3FB8DE700BFF5
:1012D000080200200000C842F8910008E402002043
:1012E00080B590B000AF07F11803282200211846FE
:1012F00005F094F83B1D00221A605A609A60DA608B
:101300001A610123BB614FF48033FB6100237B63CF
:1013100007F11803184603F065FF0346002B01D0C0
:1013200000F0FAF80F237B600123BB600023FB6011
:101330004FF480633B6100237B613B1D0021184615
:1013400004F0D2F90346002B01D000F0E5F800BF0D
:101350004037BD4680BD000080B500AF124B134A38
:101360001A60114B124A5A600F4B00229A600E4BC2
:101370000022DA600C4B4FF480421A610A4B0022C3
:101380005A61094B00229A61074B0022DA61064B31
:1013900000221A62044801F0D1F80346002B01D064
:1013A00000F0BAF800BF80BD0802002000540040E1
:1013B000801A060080B500AF114B124A1A60104B1C
:1013C0004FF4E1325A600E4B00229A600C4B00221F
:1013D000DA600B4B00221A61094B0C225A61084B50
:1013E00000229A61064B0022DA61054804F014FBE2
:1013F0000346002B01D000F08FF800BF80BD00BF76
:10140000E40200200038014080B582B000AF284BD4
:101410005B69274A43F001035361254B5B6903F085
:1014200001037B607B68234B234A1A60214B4FF4F6
:1014300080425A601F4B40229A601E4B8022DA6025
:101440001C4B00221A611B4B00225A61194B0022CF
:101450009A61184B0022DA61164800F0CFFC03466F
:10146000002B01D000F058F8002200210E2000F0DF
:101470008EFC0E2000F0A7FC002200210F2000F0BF
:1014800086FC0F2000F09FFC00220021102000F0BD
:101490007EFC102000F097FC00220021112000F0BB
:1014A00076FC112000F08FFC00BF0837BD4680BDE0
:1014B00000100240B00300200800024080B485B054
:1014C00000AF144B9B69134A43F020039361114B07
:1014D0009B6903F02003FB60FB680E4B9B690D4A80
:1014E00043F0040393610B4B9B6903F00403BB605F
:1014F000BB68084B9B69074A43F008039361054B9F
:101500009B6903F008037B607B6800BF1437BD460E
:1015100080BC70470010024080B400AF72B600BFBC
:10152000FEE7000080B485B000AF154B9B69144AFC
:1015300043F001039361124B9B6903F00103BB600D
:10154000BB680F4BDB690E4A43F08053D3610C4BF1
:10155000DB6903F080537B607B680A4B5B68FB6050
:10156000FB6823F0E063FB60FB6843F00073FB6003
:10157000044AFB68536000BF1437BD4680BC704707
:10158000001002400000014080B588B000AF7860D4
:1015900007F1100300221A605A609A60DA607B68D3
:1015A0001B68434A93427FD1424B9B69414A43F0B7
:1015B000080393613F4B9B6903F00803FB60FB68E2
:1015C000C0233B6112237B610323FB6107F11003FE
:1015D0001946394800F02EFE364BDB69354A43F494
:1015E0000013D361334BDB6903F40013BB60BB68AA
:1015F000324B334A1A60314B00225A602F4B002283
:101600009A602E4B8022DA602C4B00221A612B4B01
:1016100000225A61294B00229A61284B0022DA618C
:10162000264800F0EBFB0346002B01D0FFF774FFC8
:101630007B68224A9A63214A7B685362214B224A83
:101640001A60204B10225A601E4B00229A601D4BDC
:101650008022DA601B4B00221A611A4B00225A6169
:10166000184B00229A61174B0022DA61154800F0EE
:10167000C5FB0346002B01D0FFF74EFF7B68114AE4
:101680005A63104A7B685362002200211F2000F039
:101690007EFB1F2000F097FB00220021202000F09D
:1016A00076FB202000F08FFB00BF2037BD4680BDB9
:1016B0000054004000100240000C01405C02002079
:1016C00080000240A00200206C00024080B588B07B
:1016D00000AF786007F1100300221A605A609A6028
:1016E000DA607B681B68474A934240F08680464B2D
:1016F0009B69454A43F480439361434B9B6903F4E0
:101700008043FB60FB68404B9B693F4A43F0040306
:1017100093613D4B9B6903F00403BB60BB684FF4CE
:1017200000733B6102237B610323FB6107F110031C
:101730001946364800F07EFD4FF480633B6100237C
:101740007B610023BB6107F1100319462F4800F0AD
:1017500071FD2F4B2F4A1A602D4B10225A602C4BD3
:1017600000229A602A4B8022DA60294B00221A61FB
:10177000274B00225A61264B00229A61244B0022FB
:10178000DA61234800F03AFB0346002B01D0FFF753
:10179000C3FE7B681E4A5A631D4A7B6853621E4B18
:1017A0001E4A1A601C4B00225A601B4B00229A6092
:1017B000194B8022DA60184B00221A61164B002266
:1017C0005A61154B00229A61134B0022DA611248CC
:1017D00000F014FB0346002B01D0FFF79DFE7B6851
:1017E0000D4A9A630C4A7B6853620022002125202F
:1017F00000F0CDFA252000F0E6FA00BF2037BD4604
:1018000080BD00BF003801400010024000080140C8
:1018100028030020440002406C03002058000240CE
:1018200080B400AFFEE780B400AFFEE780B400AF45
:10183000FEE780B400AFFEE780B400AFFEE780B4FF
:1018400000AF00BFBD4680BC704780B400AF00BF92
:10185000BD4680BC704780B400AF00BFBD4680BCB1
:10186000704780B500AF00F07BF900BF80BD00007D
:1018700080B500AF024800F0CBFB00BF80BD00BFC9
:101880002803002080B500AF024800F0C1FB00BF74
:1018900080BD00BF6C03002080B500AF024800F09F
:1018A000B7FB00BF80BD00BFA002002080B500AF25
:1018B000024800F0ADFB00BF80BD00BF5C0200200D
:1018C00080B500AF024801F0DDFB00BF80BD00BF66
:1018D0000802002080B500AF024801F044FD00BFBF
:1018E00080BD00BF0802002080B500AF024804F0B0
:1018F00073F900BF80BD00BFE402002080B400AFD8
:1019000001231846BD4680BC704780B582B000AF49
:101910007860396004F058FD034616221A604FF0D3
:10192000FF3318460837BD4680BD80B582B000AF92
:1019300078604FF0FF317868FFF7E7FFFEE780B58A
:1019400086B000AFF860B9607A6000237B610AE07E
:10195000AFF300800146BB685A1CBA60CAB21A7065
:101960007B6901337B617A697B689A42F0DB7B6833
:1019700018461837BD4680BD80B586B000AFF86008
:10198000B9607A6000237B6109E0BB685A1CBA60C9
:101990001B781846AFF300807B6901337B617A695D
:1019A0007B689A42F1DB7B6818461837BD4680BDDC
:1019B00080B483B000AF78604FF0FF3318460C3727
:1019C000BD4680BC704780B483B000AF786039609A
:1019D0003B684FF400525A60002318460C37BD464E
:1019E00080BC704780B483B000AF78600123184694
:1019F0000C37BD4680BC704780B485B000AFF8603E
:101A0000B9607A60002318461437BD4680BC704721
:101A100080B586B000AF7860144A154BD31A7B614D
:101A20007B693B61134B1B68002B02D1114B124A9F
:101A30001A60104B1A687B6813443A699A4207D2BD
:101A400004F0C2FC03460C221A604FF0FF3309E099
:101A5000084B1B68FB60074B1A687B681344054AF8
:101A60001360FB6818461837BD4680BD0050002043
:101A700000040000F40300201004002080B400AF34
:101A800000BFBD4680BC70470C480D490D4A00237D
:101A900002E0D458C4500433C4188C42F9D30A4A23
:101AA0000A4C002301E013600432A242FBD3FFF78B
:101AB000E5FF04F08FFCFFF785FB70470000002076
:101AC000E40100202C960008E40100200C04002012
:101AD000FEE7000080B500AF084B1B68074A43F0E3
:101AE00010031360032000F047F90F2000F008F8FE
:101AF000FFF718FD0023184680BD00BF00200240FC
:101B000080B582B000AF7860124B1A68124B1B7818
:101B100019464FF47A73B3FBF1F3B2FBF3F31846B3
:101B200000F05FF90346002B01D001230EE07B6833
:101B30000F2B0AD8002279684FF0FF3000F027F908
:101B4000064A7B681360002300E00123184608372B
:101B5000BD4680BD08000020100000200C000020C1
:101B600080B400AF054B1B781A46054B1B68134425
:101B7000034A136000BFBD4680BC704710000020C0
:101B8000F803002080B400AF024B1B681846BD4626
:101B900080BC7047F803002080B584B000AF786047
:101BA000FFF7F0FFB8607B68FB60FB68B3F1FF3FB5
:101BB00005D00A4B1B781A46FB681344FB6000BF34
:101BC000FFF7E0FF0246BB68D31AFA689A42F7D8DB
:101BD00000BF00BF1037BD4680BD00BF1000002011
:101BE00080B485B000AF78607B6803F00703FB60CA
:101BF0000C4BDB68BB60BA684FF6FF031340BB6059
:101C0000FB681A02BB68134343F0BF6343F400331D
:101C1000BB60044ABB68D36000BF1437BD4680BCBC
:101C2000704700BF00ED00E080B400AF044BDB68FC
:101C30001B0A03F007031846BD4680BC704700BF6F
:101C400000ED00E080B483B000AF0346FB7197F96C
:101C50000730002B0BDBFB7903F01F02064997F9D5
:101C600007305B09012000FA02F241F8232000BF8F
:101C70000C37BD4680BC704700E100E080B483B003
:101C800000AF03463960FB7197F90730002B0ADB80
:101C90003B68DAB20C4997F907301201D2B20B4413
:101CA00083F800230AE03B68DAB20849FB7903F0C5
:101CB0000F03043B1201D2B20B441A7600BF0C375B
:101CC000BD4680BC704700BF00E100E000ED00E0D1
:101CD00080B489B000AFF860B9607A60FB6803F047
:101CE0000703FB61FB69C3F10703042B28BF04232F
:101CF000BB61FB690433062B02D9FB69033B00E09F
:101D000000237B614FF0FF32BB6902FA03F3DA4331
:101D1000BB681A407B699A404FF0FF317B6901FA3A
:101D200003F3D9437B680B40134318462437BD4661
:101D300080BC704780B582B000AF78607B68013BA3
:101D4000B3F1807F01D301230FE00A4A7B68013B96
:101D500053600F214FF0FF30FFF790FF054B00223B
:101D60009A60044B07221A60002318460837BD46C4
:101D700080BD00BF10E000E080B582B000AF7860A9
:101D80007868FFF72DFF00BF0837BD4680BD80B5DE
:101D900086B000AF0346B9607A60FB7300237B61B5
:101DA000FFF742FF78617A68B9687869FFF790FFBA
:101DB000024697F90F3011461846FFF75FFF00BF44
:101DC0001837BD4680BD80B582B000AF0346FB71B9
:101DD00097F907301846FFF735FF00BF0837BD46B3
:101DE00080BD80B582B000AF78607868FFF7A2FF51
:101DF000034618460837BD4680BD000080B485B054
:101E000000AF78600023FB607B68002B01D10123C9
:101E100043E07B681B681A46224B1344224AA2FB0C
:101E200003231B099A007B681A647B681F4ADA63E4
:101E30007B68022283F821207B681B681B68FB609B
:101E4000FB6823F47F5323F03003FB607B685A6800
:101E50007B689B681A437B68DB681A437B681B6955
:101E60001A437B685B691A437B689B691A437B68EA
:101E7000DB691343FA681343FB607B681B68FA68ED
:101E80001A607B6800229A637B68012283F8212014
:101E90007B68002283F82020002318461437BD46B3
:101EA00080BC7047F8FFFDBFCDCCCCCC0000024019
:101EB00080B485B000AF78600023FB737B6893F833
:101EC0002130022B08D07B6804229A637B680022B1
:101ED00083F82020012320E07B681B681A687B6858
:101EE0001B6822F00E021A607B681B681A687B6808
:101EF0001B6822F001021A607B681A6C7B68DB6B3E
:101F0000012101FA02F25A607B68012283F8212044
:101F10007B68002283F82020FB7B18461437BD46DF
:101F200080BC704780B584B000AF78600023FB733D
:101F30007B6893F82130022B05D07B6804229A63DA
:101F40000123FB7351E07B681B681A687B681B6880
:101F500022F00E021A607B681B681A687B681B6897
:101F600022F001021A607B681B68224A934229D042
:101F70007B681B68204A934222D07B681B681F4AFB
:101F800093421AD07B681B681D4A934212D07B682B
:101F90001B681C4A93420AD07B681B681A4A93420A
:101FA00002D14FF480130EE04FF080730BE04FF43A
:101FB000803308E04FF4805305E04FF4807302E073
:101FC000102300E00123114A53607B68012283F84B
:101FD00021207B68002283F820207B685B6B002B2C
:101FE00003D07B685B6B78689847FB7B184610379B
:101FF000BD4680BD080002401C0002403000024087
:1020000044000240580002406C00024000000240C0
:1020100080B584B000AF78607B68DB6B1B68FB60C9
:102020007B681B681B68BB607B681B6C04229A4042
:10203000FB681340002B4FD0BB6803F00403002B58
:102040004AD07B681B681B6803F02003002B07D174
:102050007B681B681A687B681B6822F004021A60A0
:102060007B681B68664A934229D07B681B68654A77
:10207000934222D07B681B68634A93421AD07B68E4
:102080001B68624A934212D07B681B68604A934285
:102090000AD07B681B685F4A934202D14FF48003E9
:1020A0000EE04FF080630BE04FF4802308E04FF424
:1020B000804305E04FF4806302E0402300E0042306
:1020C000554A53607B68DB6A002B00F094807B6884
:1020D000DB6A786898478EE07B681B6C02229A4026
:1020E000FB681340002B56D0BB6803F00203002BA3
:1020F00051D07B681B681B6803F02003002B0BD1B9
:102100007B681B681A687B681B6822F00A021A60E9
:102110007B68012283F821207B681B68384A934240
:1021200029D07B681B68374A934222D07B681B68A2
:10213000354A93421AD07B681B68344A934212D0C6
:102140007B681B68324A93420AD07B681B68314A1D
:10215000934202D14FF400130EE04FF000730BE0F6
:102160004FF4003308E04FF4005305E04FF40073E0
:1021700002E0202300E00223274A53607B6800220C
:1021800083F820207B689B6A002B34D07B689B6A95
:10219000786898472FE07B681B6C08229A40FB68A0
:1021A0001340002B28D0BB6803F00803002B23D07A
:1021B0007B681B681A687B681B6822F00E021A6035
:1021C0007B681A6C7B68DB6B012101FA02F25A60B2
:1021D0007B6801229A637B68012283F821207B6857
:1021E000002283F820207B681B6B002B04D07B68C7
:1021F0001B6B7868984700BF00BF1037BD4680BD95
:10220000080002401C00024030000240440002402E
:10221000580002406C0002400000024080B483B0CD
:1022200000AF78607B6893F8213018460C37BD46C4
:1022300080BC704780B48BB000AF786039600023F9
:102240007B6200233B6269E101227B6A02FA03F3AD
:10225000FB613B681B68FA691340BB61BA69FB69A3
:102260009A4240F058813B685B689A4A93425ED03C
:10227000984A934275D8984A934258D0964A9342C6
:102280006FD8964A934252D0944A934269D8944A5E
:1022900093424CD0924A934263D8924A934246D09A
:1022A000904A93425DD8122B2AD8122B59D801A2FA
:1022B00052F823F02F230008092300081B230008ED
:1022C0005D230008632300086323000863230008DC
:1022D00063230008632300086323000863230008C6
:1022E00063230008632300086323000863230008B6
:1022F0006323000863230008112300082523000836
:10230000794A934213D02CE03B68DB683B6229E0BA
:102310003B68DB6804333B6224E03B68DB680833DE
:102320003B621FE03B68DB680C333B621AE03B68B2
:102330009B68002B02D104233B6213E03B689B683F
:10234000012B05D108233B627B68FA691A6109E019
:1023500008233B627B68FA695A6103E000233B6211
:1023600000E000BFBB69FF2B01D87B6801E07B6800
:1023700004337B61BB69FF2B02D87B6A9B0002E0C0
:102380007B6A083B9B003B617B691A680F213B69B4
:1023900001FA03F3DB431A40396A3B6901FA03F39C
:1023A0001A437B691A603B685B6803F08053002B1B
:1023B00000F0B1804D4B9B694C4A43F0010393619F
:1023C0004A4B9B6903F00103BB60BB68484A7B6AC8
:1023D0009B08023352F82330FB607B6A03F003034F
:1023E0009B000F2202FA03F3DB43FA681340FB6001
:1023F0007B68404A934213D07B683F4A93420DD09A
:102400007B683E4A934207D07B683D4A934201D1A4
:10241000032306E0042304E0022302E0012300E09A
:1024200000237A6A02F0030292009340FA68134391
:10243000FB602F497B6A9B080233FA6841F823202E
:102440003B685B6803F48033002B06D02D4B1A6881
:102450002C49BB6913430B6006E02A4B1A68BB6921
:10246000DB43284913400B603B685B6803F400338F
:10247000002B06D0234B5A682249BB6913434B609B
:1024800006E0204B5A68BB69DB431E4913404B6092
:102490003B685B6803F48013002B06D0194B9A68E5
:1024A0001849BB6913438B6006E0164B9A68BB69F9
:1024B000DB43144913408B603B685B6803F40013F3
:1024C000002B21D00F4BDA680E49BB691343CB6058
:1024D00021E000BF00003210000031100000221087
:1024E0000000211000001210000011100010024026
:1024F0000000014000080140000C014000100140B4
:1025000000140140000401400B4BDA68BB69DB4357
:1025100009491340CB607B6A01337B623B681A68D0
:102520007B6A22FA03F3002B7FF48EAE00BF00BF5C
:102530002C37BD4680BC70470004014080B584B094
:1025400000AF78607B68002B01D101232BE17B6811
:1025500093F83D30DBB2002B06D17B68002283F874
:102560003C207868FFF710F87B68242283F83D2030
:102570007B681B681A687B681B6822F001021A607E
:102580007B681B681A687B681B6842F400421A600B
:102590007B681B681A687B681B6822F400421A601B
:1025A00003F0F4F9F8607B685B68814A934207D8CE
:1025B000FB68804A934294BF01230023DBB206E00C
:1025C000FB687D4A934294BF01230023DBB2002BBA
:1025D00001D00123E7E0FB68784AA2FB03239B0CB0
:1025E000BB607B681B685B6823F03F017B681B68EE
:1025F000BA680A435A607B681B681B6A23F03F0174
:102600007B685B686A4A934202D8BB68013309E081
:10261000BB684FF4967202FB03F3694AA2FB0323E3
:102620009B0901337A6812680B4313627B681B684D
:10263000DB6923F44F4222F0FF027B685B685C4950
:102640008B4219D8FB68591E7B685B685B00B1FB45
:10265000F3F3591C40F6FC730B40002B0AD0FB68C7
:10266000591E7B685B685B00B1FBF3F30133C3F376
:102670000B0351E004234FE07B689B68002B11D1D2
:10268000FB68581E7B6859680B465B000B44B0FB27
:10269000F3F30133C3F30B03002B0CBF012300231F
:1026A000DBB212E0FB68581E7B6859680B469B0042
:1026B0000B4499000B44B0FBF3F30133C3F30B035A
:1026C000002B0CBF01230023DBB2002B01D0012320
:1026D00022E07B689B68002B0ED1FB68581E7B684C
:1026E00059680B465B000B44B0FBF3F30133C3F3B3
:1026F0000B0343F400430FE0FB68581E7B685968E6
:102700000B469B000B4499000B44B0FBF3F30133E1
:10271000C3F30B0343F44043796809681343CB6167
:102720007B681B681B6823F0C0017B68DA697B68E3
:102730001B6A1A437B681B680A431A607B681B6824
:102740009B6823F4034323F0FF037A6811697A68D6
:10275000D26811437A6812680B4393607B681B68E8
:10276000DB6823F0FF017B685A697B689B691A4329
:102770007B681B680A43DA607B681B681A687B68A1
:102780001B6842F001021A607B6800221A647B68B1
:10279000202283F83D207B6800221A637B68002298
:1027A00083F83E20002318461037BD4680BD00BF89
:1027B000A08601007F841E00FF083D0083DE1B43CE
:1027C000D34D621080B588B002AFF8607A601A46C7
:1027D0000B467B8113463B81FFF7D4F97861FB6898
:1027E00093F83D30DBB2202B40F0E0807B69009312
:1027F000192301227049F86802F0CCFA0346002B35
:1028000001D00223D3E0FB6893F83C30012B01D1C7
:102810000223CCE0FB68012283F83C20FB681B68A4
:102820001B6803F00103012B07D0FB681B681A68C3
:10283000FB681B6842F001021A60FB681B681A689B
:10284000FB681B6822F400621A60FB68212283F88F
:102850003D20FB68102283F83E20FB6800221A64AA
:10286000FB687A685A62FB683A895A85FB685B8D17
:102870009AB2FB681A85FB68504ADA6279897B69EB
:102880003A6AF86801F0DEFF0346002B01D001230D
:102890008DE000233B61FB681B685B693B61FB6863
:1028A0001B689B693B613B6966E07A69396AF86835
:1028B00002F046FB0346002B0DD0FB681B6C042B7B
:1028C00007D1FB681B681A68FB681B6842F400723A
:1028D0001A6001236BE0FB685B6A1A78FB681B686F
:1028E0001A61FB685B6A5A1CFB685A62FB685B8D65
:1028F0009BB2013B9AB2FB685A85FB681B8D013B7A
:102900009AB2FB681A85FB681B685B6903F00403D5
:10291000042B1BD1FB681B8D002B17D0FB685B6A57
:102920001A78FB681B681A61FB685B6A5A1CFB68B3
:102930005A62FB685B8D9BB2013B9AB2FB685A8579
:10294000FB681B8D013B9AB2FB681A857A69396A6C
:10295000F86802F036FB0346002B0DD0FB681B6CB9
:10296000042B07D1FB681B681A68FB681B6842F4DC
:1029700000721A6001231AE0FB681B8D002B94D1B2
:10298000FB681B681A68FB681B6842F400721A60D7
:10299000FB68202283F83D20FB68002283F83E205C
:1029A000FB68002283F83C20002300E00223184645
:1029B0001837BD4680BD00BF020010000000FFFFB9
:1029C00080B588B002AFF860084611461A46034643
:1029D0007B810B463B811346FB80FFF7D3F8786180
:1029E000FB6893F83D30DBB2202B40F0D9807B6947
:1029F0000093192301226D49F86802F0CBF90346D0
:102A0000002B01D00223CCE0FB6893F83C30012B73
:102A100001D10223C5E0FB68012283F83C20FB685A
:102A20001B681B6803F00103012B07D0FB681B68C0
:102A30001A68FB681B6842F001021A60FB681B6899
:102A40001A68FB681B6822F400621A60FB68212286
:102A500083F83D20FB68402283F83E20FB6800227B
:102A60001A64FB683A6A5A62FB68BA8C5A85FB683A
:102A70005B8D9AB2FB681A85FB684D4ADA62F8886A
:102A80003A8979897B690193BB6A00930346F868A8
:102A900001F05AFF0346002B52D0012381E07A69EE
:102AA000B96AF86802F04CFA0346002B0DD0FB68B7
:102AB0001B6C042B07D1FB681B681A68FB681B683A
:102AC00042F400721A6001236BE0FB685B6A1A78BB
:102AD000FB681B681A61FB685B6A5A1CFB685A62D8
:102AE000FB681B8D013B9AB2FB681A85FB685B8D06
:102AF0009BB2013B9AB2FB685A85FB681B685B6915
:102B000003F00403042B1BD1FB681B8D002B17D093
:102B1000FB685B6A1A78FB681B681A61FB685B6A72
:102B20005A1CFB685A62FB681B8D013B9AB2FB681A
:102B30001A85FB685B8D9BB2013B9AB2FB685A8594
:102B4000FB681B8D002BAAD17A69B96AF86802F07C
:102B500038FA0346002B0DD0FB681B6C042B07D101
:102B6000FB681B681A68FB681B6842F400721A60F5
:102B7000012316E0FB681B681A68FB681B6842F4B7
:102B800000721A60FB68202283F83D20FB68002257
:102B900083F83E20FB68002283F83C20002300E0FD
:102BA000022318461837BD4680BD00BF0200100042
:102BB0000000FFFF80B58CB002AFF86008461146F8
:102BC0001A4603467B810B463B811346FB8000235C
:102BD0003B62FEF7D7FF7862FB6893F83D30DBB2CB
:102BE000202B40F044827B6A009319230122824902
:102BF000F86802F0CFF80346002B01D0022337E239
:102C0000FB6893F83C30012B01D1022330E2FB68D2
:102C1000012283F83C20FB681B681B6803F001035A
:102C2000012B07D0FB681B681A68FB681B6842F021
:102C300001021A60FB681B681A68FB681B6822F4B3
:102C400000621A60FB68222283F83D20FB68402264
:102C500083F83E20FB6800221A64FB683A6B5A62D4
:102C6000FB68BA8E5A85FB685B8D9AB2FB681A8541
:102C7000FB68624ADA62F8883A8979897B6A01934B
:102C8000BB6B00930346F86801F0F4FE0346002B8B
:102C900001D00123ECE1FB681B8D002B13D1002335
:102CA000FB61FB681B685B69FB61FB681B689B69D8
:102CB000FB61FB69FB681B681A68FB681B6842F4D0
:102CC00000721A60C0E1FB681B8D012B1ED1FB68EE
:102CD0001B681A68FB681B6822F480621A6072B66F
:102CE00000BF0023BB61FB681B685B69BB61FB68BD
:102CF0001B689B69BB61BB69FB681B681A68FB6842
:102D00001B6842F400721A6062B635E0FB681B8DE6
:102D1000022B1ED1FB681B681A68FB681B6842F413
:102D200000621A6072B600BF00237B61FB681B68FB
:102D30005B697B61FB681B689B697B617B69FB68E6
:102D40001B681A68FB681B6822F480621A6062B60E
:102D500012E0FB681B681A68FB681B6842F480621B
:102D60001A6000233B61FB681B685B693B61FB6881
:102D70001B689B693B613B6966E1FB681B8D032B0C
:102D800000F21F81FB681B8D012B23D17A6AB96B7E
:102D9000F86802F089F90346002B01D0012367E1AE
:102DA000FB681B681A69FB685B6AD2B21A70FB6821
:102DB0005B6A5A1CFB685A62FB681B8D013B9AB226
:102DC000FB681A85FB685B8D9BB2013B9AB2FB687E
:102DD0005A8539E1FB681B8D022B52D17B6A009327
:102DE000BB6B00220649F86801F0D4FF0346002BB4
:102DF00008D001233CE100BF020010000000FFFFEB
:102E00000400010072B600BFFB681B681A68FB680B
:102E10001B6842F400721A60FB681B681A69FB6841
:102E20005B6AD2B21A70FB685B6A5A1CFB685A6212
:102E3000FB681B8D013B9AB2FB681A85FB685B8DB2
:102E40009BB2013B9AB2FB685A8562B600BFFB6831
:102E50001B681A69FB685B6AD2B21A70FB685B6A0E
:102E60005A1CFB685A62FB681B8D013B9AB2FB68D7
:102E70001A85FB685B8D9BB2013B9AB2FB685A8551
:102E8000E2E07B6A0093BB6B00227B49F86801F0AB
:102E900081FF0346002B01D00123E9E0FB681B689A
:102EA0001A68FB681B6822F480621A6072B600BF61
:102EB000FB681B681A69FB685B6AD2B21A70FB6810
:102EC0005B6A5A1CFB685A62FB681B8D013B9AB215
:102ED000FB681A85FB685B8D9BB2013B9AB2FB686D
:102EE0005A85664B1B68DB08654AA2FB03231A0A56
:102EF00013469B001344DA00D31A3B623B6A013B42
:102F00003B623B6A002B18D1FB6800221A63FB6806
:102F1000202283F83D20FB68002283F83E20FB68D6
:102F20001B6C43F02002FB681A6462B600BFFB68AA
:102F3000002283F83C2001239AE0FB681B685B6950
:102F400003F00403042BD9D1FB681B681A68FB68E3
:102F50001B6842F400721A60FB681B681A69FB6800
:102F60005B6AD2B21A70FB685B6A5A1CFB685A62D1
:102F7000FB681B8D013B9AB2FB681A85FB685B8D71
:102F80009BB2013B9AB2FB685A8562B600BFFB68F0
:102F90001B681A69FB685B6AD2B21A70FB685B6ACD
:102FA0005A1CFB685A62FB681B8D013B9AB2FB6896
:102FB0001A85FB685B8D9BB2013B9AB2FB685A8510
:102FC00042E07A6AB96BF86802F06EF80346002BAB
:102FD00001D001234CE0FB681B681A69FB685B6A3F
:102FE000D2B21A70FB685B6A5A1CFB685A62FB68B3
:102FF0001B8D013B9AB2FB681A85FB685B8D9BB207
:10300000013B9AB2FB685A85FB681B685B6903F059
:103010000403042B18D1FB681B681A69FB685B6A00
:10302000D2B21A70FB685B6A5A1CFB685A62FB6872
:103030001B8D013B9AB2FB681A85FB685B8D9BB2C6
:10304000013B9AB2FB685A85FB681B8D002B7FF40D
:1030500094AEFB68202283F83D20FB68002283F8B1
:103060003E20FB68002283F83C20002300E002237E
:1030700018462837BD4680BD040001000800002026
:1030800089B5F81480B588B000AF78600023BB61C3
:103090007B681B685B687B617B68DB6A3B617B6884
:1030A00093F83E30FB737B6893F83D30BB73FB7B3A
:1030B000102B03D0FB7B402B40F0C1807B681B684A
:1030C0009B69BB617B681B685B69FB61FB6903F003
:1030D0000103002B0DD13B69B3F52A0F03D03B69E7
:1030E000B3F12A4F01D1012300E00023012B00F0AE
:1030F0003281FB6903F00103002B0CD07B695B0A72
:1031000003F00103002B06D0786802F051F87868CC
:1031100000F077FD92E0FB69DB0803F00103002B70
:1031200009D07B695B0A03F00103002B03D07868A8
:1031300000F0ECFD82E0FB695B0803F00103002B6B
:1031400009D07B695B0A03F00103002B03D0786888
:1031500000F005FE72E0BB699B0803F00103002B41
:103160003BD07B681B685B6803F40063B3F5006FBA
:1031700000F0F380FB69DB0903F00103002B0FD0A3
:103180007B699B0A03F00103002B09D0FB699B08B4
:1031900003F00103002B03D1786800F0F1F94DE052
:1031A000FB699B0803F00103002B00F0D6807B69CC
:1031B0005B0A03F00103002B00F0CF80BB7B212BC7
:1031C00003D1786800F078FAC7E0FB7B402B40F031
:1031D000C480786800F0E6FABFE07B681B685B6833
:1031E00003F40063B3F5006F00F0B780FB699B093F
:1031F00003F00103002B0FD07B699B0A03F001034E
:10320000002B09D0FB699B0803F00103002B03D1BD
:10321000786800F05BFB11E0FB699B0803F0010399
:10322000002B00F09A807B695B0A03F00103002BFE
:1032300000F09380786800F0FAFB8EE08DE07B6808
:103240001B6C002B04D07B681B685B69FB6107E08B
:103250007B681B689B69BB617B681B685B69FB6162
:10326000FB695B0803F00103002B12D07B695B0A4A
:1032700003F00103002B0CD07B681B6C002B03D0E8
:103280007B681B689B69BB61B969786800F0BEFF09
:1032900066E0FB691B0903F00103002B09D07B6981
:1032A0005B0A03F00103002B03D0786800F0F8FFFD
:1032B00056E0BB7B212B02D0BB7B292B25D1FB69A0
:1032C000DB0903F00103002B0FD07B699B0A03F09D
:1032D0000103002B09D0FB699B0803F00103002BBD
:1032E00003D1786800F0D6FE39E0FB699B0803F053
:1032F0000103002B33D07B695B0A03F00103002B31
:103300002DD0786800F003FF29E0FB699B0903F0EA
:103310000103002B0FD07B699B0A03F00103002BF4
:1033200009D0FB699B0803F00103002B03D17868E7
:1033300000F00DFF14E0FB699B0803F00103002B74
:103340000ED07B695B0A03F00103002B08D078687C
:1033500000F03BFF04E000BF02E000BF00E000BF60
:103360002037BD4680BD80B58AB000AF78607B68ED
:103370001B685B693B627B681B685B68FB610023C1
:103380007B627B6893F83E30FB763B6A1B0A03F056
:103390000103002B16D0FB691B0A03F00103002B6D
:1033A00010D07B6A43F001037B627B681B686FF47B
:1033B00080725A617B681B681A687B681B6842F4DC
:1033C00000421A603B6A5B0A03F00103002B0ED037
:1033D000FB691B0A03F00103002B08D07B6A43F052
:1033E00002037B627B681B686FF400725A613B6A60
:1033F0009B0A03F00103002B3FD0FB691B0A03F07B
:103400000103002B39D0FB7EBB767B685B8D9BB2C2
:103410007B617B6893F83D30FB747B681B6BFB60C2
:10342000BB7E202B12D17B69002B0FD1FB7C212B83
:1034300008D0FB7C292B05D0FB7C282B06D1FB6810
:10344000212B03D1786801F05BF816E07B681B68DC
:103450006FF480625A617B6A43F004037B62FB7EF7
:10346000102B02D0FB7E402B07D17B681B681A68AB
:103470007B681B6842F400721A603B6ADB0A03F047
:103480000103002B0ED0FB691B0A03F00103002B84
:1034900008D07B6A43F008037B627B681B686FF48B
:1034A00000625A617B6A002B08D07B681A6C7B6AC9
:1034B0001A437B681A64786801F092F800BF2837D5
:1034C000BD4680BD80B483B000AF786000BF0C37CC
:1034D000BD4680BC704780B483B000AF786000BF49
:1034E0000C37BD4680BC704780B483B000AF7860B5
:1034F00000BF0C37BD4680BC704780B483B000AFBE
:10350000786000BF0C37BD4680BC704780B483B084
:1035100000AF78600B46FB7013463B8000BF0C3752
:10352000BD4680BC704780B483B000AF786000BFF8
:103530000C37BD4680BC704780B483B000AF786064
:1035400000BF0C37BD4680BC704780B483B000AF6D
:10355000786000BF0C37BD4680BC704780B483B034
:1035600000AF786000BF0C37BD4680BC704780B4A8
:1035700083B000AF786000BF0C37BD4680BC704799
:1035800080B584B000AF78607B6893F83D30FB7302
:103590007B6893F83E30BB737B68DB6ABB607B68FB
:1035A0001B8D002B50D1FB7B212B4DD1BB68082BF1
:1035B0001DD0BB68202B1AD0BB6813F5803F16D0F6
:1035C0007B681B685A687B681B6822F4E0625A605B
:1035D0007B6811221A637B68002283F83E207B6897
:1035E000202283F83D207868FFF76CFF60E07B685D
:1035F0001B685A687B681B6822F4E0625A607B682B
:103600001B681A687B681B6842F400721A607B684A
:1036100000221A637B68202283F83D207B6893F8A0
:103620003E30DBB2402B07D17B68002283F83E207E
:103630007868FFF781FF3BE07B68002283F83E203B
:103640007868FFF73FFF33E0FB7B212B05D0BB7B86
:10365000402B2DD1FB7B222B2AD17B685B8D9BB22B
:10366000002B08D17B681B685A687B681B6822F4B2
:1036700080625A601CE07B6893F83E30DBB2402BDE
:1036800003D1786800F08EF812E07B685B6A1A78E4
:103690007B681B681A617B685B6A5A1C7B685A628C
:1036A0007B685B8D9BB2013B9AB27B685A85FFE7D2
:1036B00000BF1037BD4680BD80B584B000AF7860D4
:1036C0007B68DB6AFB607B6893F83D30DBB2212BC3
:1036D00064D17B685B8D9BB2002B12D07B685B6AE8
:1036E0001A787B681B681A617B685B6A5A1C7B6866
:1036F0005A627B685B8D9BB2013B9AB27B685A85AC
:103700004CE0FB68082B1DD0FB68202B1AD0FB680F
:1037100013F5803F16D07B681B685A687B681B686E
:1037200022F4E0625A607B6811221A637B680022EF
:1037300083F83E207B68202283F83D207868FFF7DD
:10374000C1FE2BE07B681B685A687B681B6822F40B
:10375000E0625A607B681B681A687B681B6842F4E9
:1037600000721A607B6800221A637B68202283F84B
:103770003D207B6893F83E30DBB2402B07D17B685D
:10378000002283F83E207868FFF7D6FE06E07B68CB
:10379000002283F83E207868FFF794FE00BF1037C0
:1037A000BD4680BD80B584B000AF78607B6893F87B
:1037B0003D30FB737B681B6D002B1DD17B68DB6C80
:1037C000012B0BD17B689B6CDAB27B681B681A619A
:1037D0007B681B6D9A1C7B681A6573E07B689B6C29
:1037E0009BB21B12DAB27B681B681A617B681B6D87
:1037F0005A1C7B681A6565E07B681B6D012B0BD139
:103800007B689B6CDAB27B681B681A617B681B6DF6
:103810005A1C7B681A6555E07B681B6D022B51D1E1
:10382000FB7B222B0DD17B681B681A687B681B68A9
:1038300042F480721A607B681B6D5A1C7B681A65A3
:1038400040E07B685B8D9BB2002B15D0FB7B212B6E
:1038500012D17B685B6A1A787B681B681A617B6887
:103860005B6A5A1C7B685A627B685B8D9BB2013B2A
:103870009AB27B685A8525E07B685B8D9BB2002BF2
:1038800020D1FB7B212B1DD17B681B685A687B688C
:103890001B6822F4E0625A607B681B681A687B68C8
:1038A0001B6842F400721A607B6800221A637B680E
:1038B000202283F83D207B68002283F83E20786830
:1038C000FFF73AFE00BF1037BD4680BD80B584B01B
:1038D00000AF78607B6893F83D30DBB2222B40F07C
:1038E000A2807B685B8D9BB2FB60FB68032B21D9B8
:1038F0007B681B681A697B685B6AD2B21A707B6846
:103900005B6A5A1C7B685A627B685B8D9BB2013B89
:103910009AB27B685A857B685B8D9BB2032B40F023
:1039200082807B681B685A687B681B6822F480620F
:103930005A6078E07B68DB6A022B74D0FB68012B4D
:1039400002D0FB68002B6ED1786801F07BFB034648
:10395000002B42D17B681B681A687B681B6822F4C5
:1039600080621A607B681B685A687B681B6822F457
:10397000E0625A607B681B681A697B685B6AD2B236
:103980001A707B685B6A5A1C7B685A627B685B8D25
:103990009BB2013B9AB27B685A857B68202283F8F0
:1039A0003D207B6893F83E30DBB2402B0AD17B6828
:1039B000002283F83E207B6800221A637868FFF7B4
:1039C000C4FD30E07B68002283F83E207B68122231
:1039D0001A637868FFF77FFD25E07B681B685A68EB
:1039E0007B681B6822F4E0625A607B681B681A6976
:1039F0007B685B6AD2B21A707B685B6A5A1C7B6810
:103A00005A627B685B8D9BB2013B9AB27B685A8598
:103A10007B68202283F83D207B68002283F83E20CB
:103A20007868FFF79BFD00BF1037BD4680BD80B5AD
:103A300084B000AF78607B68DB6AFB607B685B8D7D
:103A40009BB2042B1BD17B681B685A687B681B6880
:103A500022F480625A607B681B681A697B685B6A23
:103A6000D2B21A707B685B6A5A1C7B685A627B68A8
:103A70005B8D9BB2013B9AB27B685A85BDE07B6847
:103A80005B8D9BB2032B29D17B681B685A687B68CE
:103A90001B6822F480625A60FB68042B0AD0FB6822
:103AA000022B07D07B681B681A687B681B6822F4AE
:103AB00080621A607B681B681A697B685B6AD2B295
:103AC0001A707B685B6A5A1C7B685A627B685B8DE4
:103AD0009BB2013B9AB27B685A858EE07B685B8D16
:103AE0009BB2022B76D1FB68012B02D0FB68102B16
:103AF00008D17B681B681A687B681B6822F48062A7
:103B00001A6019E0FB68042B02D0FB68022B08D175
:103B10007B681B681A687B681B6842F480621A60C5
:103B20000AE0FB68102B07D07B681B681A687B686B
:103B30001B6842F400721A607B681B681A697B6814
:103B40005B6AD2B21A707B685B6A5A1C7B685A62E5
:103B50007B685B8D9BB2013B9AB27B685A857B6820
:103B60001B681A697B685B6AD2B21A707B685B6AF1
:103B70005A1C7B685A627B685B8D9BB2013B9AB290
:103B80007B685A857B681B685A687B681B6822F4CF
:103B900040725A607B68202283F83D207B6893F84E
:103BA0003E30DBB2402B0AD17B68002283F83E20F6
:103BB0007B6800221A637868FFF7C7FC1DE07B680A
:103BC000002283F83E207B6812221A637868FFF790
:103BD00082FC12E07B681B681A697B685B6AD2B260
:103BE0001A707B685B6A5A1C7B685A627B685B8DC3
:103BF0009BB2013B9AB27B685A8500BF1037BD4625
:103C000080BD80B483B000AF78607B6893F83E30AD
:103C1000DBB2402B17D17B681B6D002B09D17B6871
:103C20005B6CDBB21A467B681B6802F0FE021A610D
:103C300067E07B685B6CDBB243F00103DAB27B6860
:103C40001B681A615DE07B681B69B3F5804F33D157
:103C50007B6893F83D30DBB2212B09D17B685B6C2C
:103C6000DBB21A467B681B6802F0FE021A6108E0AC
:103C70007B685B6CDBB243F00103DAB27B681B68E4
:103C80001A617B685B6B002B04D07B685B6B9B6A63
:103C9000002B08D17B689B6B002B32D07B689B6B21
:103CA0009B6A002B2DD07B681B685A687B681B6859
:103CB00042F400625A6024E07B681B6D002B0ED139
:103CC0007B685B6C9BB2DB11DBB203F00603DBB2FB
:103CD00063F00F03DAB27B681B681A6111E07B683E
:103CE0001B6D012B0DD17B685B6C9BB2DB11DBB2D2
:103CF00003F00603DBB263F00E03DAB27B681B68E5
:103D00001A6100BF0C37BD4680BC704780B483B0D9
:103D100000AF78607B685B6CDAB27B681B681A6105
:103D20007B685B6B002B04D07B685B6B9B6A002B12
:103D300008D17B689B6B002B0CD07B689B6B9B6ACC
:103D4000002B07D07B681B685A687B681B6842F4AD
:103D500000625A6000BF0C37BD4680BC704780B41B
:103D600091B000AF78607B6893F83E3087F83F30C1
:103D70007B68DB6ABB637B681B6B7B637B6893F848
:103D80003D30DBB2222B40F074817B681B6D002B31
:103D90000FD197F83F30402B0BD100233B637B685A
:103DA0001B685B693B637B681B689B693B633B6B80
:103DB0006BE17B681B6D002B1DD17B681B69B3F524
:103DC000404F18D10023FB627B681B685B69FB6274
:103DD0007B681B689B69FB62FB6A7B681B681A68CF
:103DE0007B681B6842F480721A607B681B6D5A1CEA
:103DF0007B681A6549E17B685B8D9BB2002B13D110
:103E00000023BB627B681B685B69BB627B681B68C5
:103E10009B69BB62BB6A7B681B681A687B681B680E
:103E200042F400721A6020E17B685B8D9BB2012B2B
:103E300040F08A80BB6B13F5803F37D17B681B68ED
:103E40001A687B681B6822F480621A607B681B68B2
:103E50005B6803F40063B3F5006F13D17B681B68E4
:103E60001A687B681B6822F480621A6000237B62F8
:103E70007B681B685B697B627B681B689B697B62F4
:103E80007B6AF2E000233B627B681B685B693B62F4
:103E90007B681B689B693B623B6A7B681B681A688E
:103EA0007B681B6842F400721A60DEE0BB6B082B73
:103EB0002ED0BB6B202B2BD07B6B122B02D1BB6B7C
:103EC000012B25D1BB6B042B0ED0BB6B022B0BD06F
:103ED000BB6B102B08D07B681B681A687B681B685B
:103EE00022F480621A6007E07B681B681A687B68AE
:103EF0001B6842F480621A600023FB617B681B68C8
:103F00005B69FB617B681B689B69FB61FB69ACE0DB
:103F10007B681B681A687B681B6822F480621A60E1
:103F20000023BB617B681B685B69BB617B681B68A6
:103F30009B69BB61BB697B681B681A687B681B68EF
:103F400042F400721A6090E07B685B8D9BB2022B9A
:103F500058D1BB6B042B21D0BB6B022B1ED0BB6B8B
:103F6000102B1BD07B681B681A687B681B6842F4A7
:103F700000621A6000237B617B681B685B697B6160
:103F80007B681B689B697B617B697B681B681A681F
:103F90007B681B6822F480621A6012E07B681B68F1
:103FA0001A687B681B6842F480621A6000233B61D8
:103FB0007B681B685B693B617B681B689B693B6135
:103FC0003B697B681B685B6803F40063B3F5006FB3
:103FD0004BD1BB6B13F5803F0BD0BB6B012B08D0D3
:103FE000BB6B082B05D0BB6B102B02D0BB6B202BFF
:103FF0003BD17B681B685A687B681B6842F480521F
:104000005A6032E07B681B681A687B681B6842F460
:1040100080621A607B681B685B6803F40063B3F519
:10402000006F17D1BB6B13F5803F0BD0BB6B012B1F
:1040300008D0BB6B082B05D0BB6B102B02D0BB6B21
:10404000202B07D17B681B685A687B681B6842F489
:1040500080525A600023FB607B681B685B69FB60D1
:104060007B681B689B69FB60FB687B6800221A65A4
:104070000BE00023BB607B681B685B69BB607B68EF
:104080001B689B69BB60BB68FFE700BF4437BD4648
:1040900080BC704780B584B000AF78607B6893F8CF
:1040A0003D30FB737B685B8D9BB2002B2BD07B6814
:1040B0005B6A1A787B681B681A617B685B6A5A1CAA
:1040C0007B685A627B685B8D9BB2013B9AB27B68CE
:1040D0005A857B685B8D9BB2002B14D1FB7B292B0F
:1040E00011D17B681B685A687B681B6822F4806268
:1040F0005A607B6821221A637B68282283F83D205E
:104100007868FFF7F1F900BF1037BD4680BD80B475
:1041100083B000AF78607B685B8D9BB2002B11D0C1
:104120007B685B6A1A787B681B681A617B685B6ACC
:104130005A1C7B685A627B685B8D9BB2013B9AB2CA
:104140007B685A8500BF0C37BD4680BC704780B580
:1041500084B000AF78607B6893F83D30FB737B6878
:104160005B8D9BB2002B2CD07B681B681A697B6827
:104170005B6AD2B21A707B685B6A5A1C7B685A62AF
:104180007B685B8D9BB2013B9AB27B685A857B68EA
:104190005B8D9BB2002B14D1FB7B2A2B11D17B684A
:1041A0001B685A687B681B6822F480625A607B68CF
:1041B00022221A637B68282283F83D207868FFF763
:1041C0009CF900BF1037BD4680BD80B483B000AFFE
:1041D00078607B685B8D9BB2002B12D07B681B687C
:1041E0001A697B685B6AD2B21A707B685B6A5A1C78
:1041F0007B685A627B685B8D9BB2013B9AB27B689D
:104200005A8500BF0C37BD4680BC704780B584B06E
:1042100000AF786039600023FB737B6893F83D3012
:10422000DBB203F02803282B27D17B681B685A6870
:104230007B681B6822F480625A603B689B0803F02D
:104240000103002B01D10123FB733B68DB0903F061
:104250000103002B03D17B68DB68BB8102E07B6834
:104260009B69BB817B68002283F83C20BA89FB7B79
:1042700019467868FFF74AF90EE00023BB607B68B7
:104280001B685B69BB607B681B689B69BB60BB6824
:104290007B68002283F83C2000BF1037BD4680BDFC
:1042A00080B584B000AF78607B6893F83D30FB73D5
:1042B0007B681B685A687B681B6822F4E0625A605E
:1042C0000023BB607B681B685B69BB607B681B6805
:1042D0001A687B681B6842F001021A60BB687B6841
:1042E0001B681A687B681B6822F480621A607B680E
:1042F0001B685B6803F40063B3F5006F72D1FB7B4E
:10430000222B02D0FB7B2A2B35D17B689B6B1B6851
:104310005B689AB27B685A857B685B8D9BB2002B89
:1043200005D07B681B6C43F004027B681A647B68D1
:104330001B685A687B681B6822F400625A607B68BD
:104340009B6B1846FDF76AFF0346012B49D07B683B
:104350009B6B694A5A637B689B6B1846FDF7E2FDCD
:104360000346002B3DD07B689B6B5B6B7A68926B3E
:104370001046984735E07B685B6B1B685B689AB2B8
:104380007B685A857B685B8D9BB2002B05D07B6870
:104390001B6C43F004027B681A647B681B685A68D4
:1043A0007B681B6822F400625A607B685B6B18466E
:1043B000FDF734FF0346012B14D07B685B6B4E4A3C
:1043C0005A637B685B6B1846FDF7ACFD0346002B18
:1043D00008D07B685B6B5B6B7A68526B10469847C2
:1043E00000E000BF7B685B8D9BB2002B3ED07B68FA
:1043F0001B685B6903F00403042B12D17B681B6804
:104400001A697B685B6AD2B21A707B685B6A5A1C55
:104410007B685A627B685B8D9BB2013B9AB27B687A
:104420005A857B681B685B6903F04003402B12D1FF
:104430007B681B681A697B685B6AD2B21A707B68FA
:104440005B6A5A1C7B685A627B685B8D9BB2013B3E
:104450009AB27B685A857B685B8D9BB2002B05D036
:104460007B681B6C43F004027B681A647B681B6CDE
:10447000002B03D0786800F0B3F839E0FB7B2A2BDF
:1044800009D17B6800221A637B68282283F83D20CB
:104490007868FFF732F87B6893F83D30DBB2282B61
:1044A00011D17B68154ADA627B6800221A637B6847
:1044B000202283F83D207B68002283F83E20786824
:1044C000FFF731F814E07B681B6B222B02D0FB7BDB
:1044D000222B0DD17B6800221A637B68202283F88F
:1044E0003D207B68002283F83E207868FFF705F8BE
:1044F00000BF1037BD4680BD454C00080000FFFFDF
:1045000080B584B000AF78607B6893F83D30FB7372
:104510007B68DB6ABB60BB68082B02D0BB68202BC2
:1045200029D1FB7B282B26D17B682C4ADA627B6859
:104530001B685A687B681B6822F4E0625A607B68DB
:104540001B686FF480625A617B681B681A687B681D
:104550001B6822F480621A607B6800221A637B6801
:10456000202283F83D207B68002283F83E20786873
:10457000FEF7D9FF2EE0FB7B212B26D17B68174A63
:10458000DA627B6821221A637B68202283F83D204F
:104590007B68002283F83E207B681B685A687B6832
:1045A0001B6822F4E0625A607B681B686FF48062CB
:1045B0005A617B681B681A687B681B6822F48062FA
:1045C0001A607868FEF790FF04E07B681B686FF460
:1045D00080625A6100BF1037BD4680BD0000FFFFFA
:1045E00080B584B000AF78607B6893F83D30FB7392
:1045F0007B6893F83E30BB73BB7B102B02D0BB7B38
:10460000402B0AD1FB7B222B07D17B681B681A68E1
:104610007B681B6822F400621A60FB7B03F02803AE
:10462000282B07D17B6800221A637B68282283F835
:104630003D2015E07B681B685B6803F40063B3F5FD
:10464000006F0AD0FB7B602B07D07B68202283F8A9
:104650003D207B68002283F83E207B6800221A639D
:104660007B681B685B6803F40063B3F5006F61D17E
:104670007B681B685A687B681B6822F400625A607A
:104680007B685B6B93F82130012B20D07B685B6BE0
:104690006A4A5A637B685B6B1846FDF743FC034626
:1046A000002B00F089807B681B681A687B681B6898
:1046B00022F001021A607B68202283F83D207B688B
:1046C0005B6B5B6B7A68526B1046984774E07B6853
:1046D0009B6B5A4A5A637B689B6B1846FDF722FC1A
:1046E0000346002B68D07B681B685B6903F04003BE
:1046F000402B0BD17B681B681A697B685B6AD2B25E
:104700001A707B685B6A5A1C7B685A627B681B68FC
:104710001A687B681B6822F001021A607B682022FD
:1047200083F83D207B689B6B5B6B7A68926B1046CD
:10473000984741E07B6893F83D30DBB2602B25D190
:104740007B68202283F83D207B6800221A647B6806
:104750001B685B6903F04003402B0BD17B681B682F
:104760001A697B685B6AD2B21A707B685B6A5A1CF2
:104770007B685A627B681B681A687B681B6822F03A
:1047800001021A607868FEF7F2FE15E07B681B688C
:104790005B6903F04003402B0BD17B681B681A69EF
:1047A0007B685B6AD2B21A707B685B6A5A1C7B6852
:1047B0005A627868FEF7D2FE7B681B6CBB60BB68F0
:1047C00003F00103002B0ED1BB6803F00203002BA2
:1047D00009D1BB6803F00403002B04D1BB6803F0CC
:1047E0000803002B07D07B681B685A687B681B682E
:1047F00022F4E0625A607B6893F83D30FB737B687B
:104800001B6C03F00403042B13D1FB7B282B10D16A
:104810007B680B4ADA627B6800221A637B6820227D
:1048200083F83D207B68002283F83E207868FEF7FD
:104830007AFE00BF1037BD4680BD00BF454C000862
:104840000000FFFF80B588B002AFF8607A603B607F
:104850000B467B81FB68DB6A7B617B69082B06D09A
:104860007B69012B03D07B6913F5803F08D1FB687E
:104870001B681A68FB681B6842F480721A600BE0C0
:10488000FB681B6B122B07D1FB681B681A68FB685F
:104890001B6842F480721A603B6800937B680022B8
:1048A0004FF00111F86800F075FA0346002B0DD0A7
:1048B000FB681B681B6803F48073B3F5807F03D12A
:1048C000FB684FF400721A64032335E0FB681B6930
:1048D000B3F5804F08D17B89DBB21A46FB681B68B1
:1048E00002F0FE021A611BE07B89DB11DBB203F0F0
:1048F0000603DBB263F00F03DAB2FB681B681A61D0
:104900003B687A680E49F86800F09BFA0346002B72
:1049100001D0012310E07B89DAB2FB681B681A61C1
:104920003B687A680749F86800F08BFA0346002B69
:1049300001D0012300E0002318461837BD4680BD92
:10494000080001000200010080B588B002AFF860E5
:10495000084611461A4603467B810B463B811346A7
:10496000FB80FB681B681A68FB681B6842F4807256
:104970001A607B6A00933B6A00224FF00111F868CD
:1049800000F008FA0346002B0DD0FB681B681B687B
:1049900003F48073B3F5807F03D1FB684FF400729A
:1049A0001A6403235FE07B89DBB21A46FB681B684D
:1049B00002F0FE021A617B6A3A6A2D49F86800F03B
:1049C00040FA0346002B01D001234CE000237B6119
:1049D000FB681B685B697B61FB681B689B697B618B
:1049E0007B697A6A396AF86800F0AAFA0346002BF4
:1049F0000DD0FB681B6C042B07D1FB681B681A6881
:104A0000FB681B6842F400721A6001232BE0FB88EC
:104A1000012B05D13B89DAB2FB681B681A6121E0E2
:104A20003B891B0A9BB2DAB2FB681B681A617A6A7F
:104A3000396AF86800F084FA0346002B0DD0FB6851
:104A40001B6C042B07D1FB681B681A68FB681B688A
:104A500042F400721A60012305E03B89DAB2FB6878
:104A60001B681A61002318461837BD4680BD00BF79
:104A70000200010080B588B002AFF8600846114618
:104A80001A4603467B810B463B811346FB80FB683D
:104A90001B681A68FB681B6842F480621A60FB6836
:104AA0001B681A68FB681B6842F480721A607B6A94
:104AB00000933B6A00224FF00111F86800F06AF998
:104AC0000346002B0DD0FB681B681B6803F4807342
:104AD000B3F5807F03D1FB684FF400721A6403239F
:104AE000AAE07B89DBB21A46FB681B6802F0FE0273
:104AF0001A617B6A3A6A5249F86800F0A2F90346E3
:104B0000002B01D0012397E000237B61FB681B6829
:104B10005B697B61FB681B689B697B617B697A6A67
:104B2000396AF86800F00CFA0346002B0DD0FB68D8
:104B30001B6C042B07D1FB681B681A68FB681B6899
:104B400042F400721A60012376E0FB88012B05D144
:104B50003B89DAB2FB681B681A6121E03B891B0ABA
:104B60009BB2DAB2FB681B681A617A6A396AF86824
:104B700000F0E6F90346002B0DD0FB681B6C042BFC
:104B800007D1FB681B681A68FB681B6842F4007257
:104B90001A60012350E03B89DAB2FB681B681A6196
:104BA0007A6A396AF86800F0CBF90346002B0DD019
:104BB000FB681B6C042B07D1FB681B681A68FB6839
:104BC0001B6842F400721A60012335E0FB681B6821
:104BD0001A68FB681B6842F480721A607B6A009353
:104BE0003B6A00224FF00111F86800F0D3F8034649
:104BF000002B0DD0FB681B681B6803F48073B3F5B2
:104C0000807F03D1FB684FF400721A64032313E022
:104C10007B89DBB243F00103DAB2FB681B681A61DF
:104C20007B6A3A6A0649F86800F00BF90346002BE4
:104C300001D0012300E0002318461837BD4680BD8F
:104C40000200010080B586B000AF78600023FB60F1
:104C50007B685B6A7B617B6993F83D30FB744B4BEF
:104C60001B68DB084A4AA2FB03231A0A13469B006F
:104C70001344DA00D31AFB60FB68002B06D17B6972
:104C80001B6C43F020027B691A640AE0FB68013B5D
:104C9000FB607B691B681B6803F40073B3F5007F3E
:104CA000EAD07B695B6B002B03D07B695B6B0022D6
:104CB0009A627B699B6B002B03D07B699B6B002204
:104CC0009A627B691B681A687B691B6822F48062A0
:104CD0001A607B6900225A857B695B6B002B03D0CD
:104CE0007B695B6B00225A637B699B6B002B03D053
:104CF0007B699B6B00225A637B691B681A687B691E
:104D00001B6822F001021A607B6993F83D30DBB228
:104D1000602B0ED17B69202283F83D207B69002225
:104D200083F83E207B6900221A647869FEF71FFC35
:104D300027E0FB7C03F02803282B17D17B691B6835
:104D40001A687B691B6842F001021A607B691B6864
:104D50001A687B691B6842F480621A607B690022D2
:104D60001A637B69282283F83D2007E07B692022B3
:104D700083F83D207B69002283F83E207869FEF7A6
:104D8000EDFB00BF1837BD4680BD00BF0800002006
:104D900089B5F81480B584B000AFF860B9603B60A5
:104DA0001346FB7125E03B68B3F1FF3F21D0FCF7D0
:104DB000E9FE0246BB69D31A3A689A4202D33B68BD
:104DC000002B16D1FB6800221A63FB68202283F8AF
:104DD0003D20FB68002283F83E20FB681B6C43F0FB
:104DE0002002FB681A64FB68002283F83C20012340
:104DF00023E0BB681B0CDBB2012B0DD1FB681B68E9
:104E00005B69DA43BB6813409BB2002B0CBF0123E4
:104E10000023DBB21A460CE0FB681B689B69DA438F
:104E2000BB6813409BB2002B0CBF01230023DBB2F5
:104E30001A46FB799A42B6D0002318461037BD4671
:104E400080BD80B584B000AFF860B9607A603B6027
:104E500051E0FB681B685B6903F48063B3F5806F06
:104E600023D1FB681B681A68FB681B6842F4007258
:104E70001A60FB681B686FF480625A61FB6800224D
:104E80001A63FB68202283F83D20FB68002283F828
:104E90003E20FB681B6C43F00402FB681A64FB684D
:104EA000002283F83C20012346E07B68B3F1FF3FFA
:104EB00021D0FCF767FE02463B68D31A7A689A4213
:104EC00002D37B68002B16D1FB6800221A63FB68B3
:104ED000202283F83D20FB68002283F83E20FB68F7
:104EE0001B6C43F02002FB681A64FB68002283F805
:104EF0003C20012320E0BB681B0CDBB2012B0CD152
:104F0000FB681B685B69DA43BB6813409BB2002BEC
:104F100014BF01230023DBB20BE0FB681B689B6915
:104F2000DA43BB6813409BB2002B14BF012300235C
:104F3000DBB2002B8DD1002318461037BD4680BD53
:104F400080B584B000AFF860B9607A602DE0F86891
:104F500000F000F90346002B01D001232DE0BB68CF
:104F6000B3F1FF3F21D0FCF70DFE02467B68D31A58
:104F7000BA689A4202D3BB68002B16D1FB680022A4
:104F80001A63FB68202283F83D20FB68002283F827
:104F90003E20FB681B6C43F02002FB681A64FB6830
:104FA000002283F83C20012307E0FB681B685B6953
:104FB00003F08003802BCAD1002318461037BD466A
:104FC00080BD80B584B000AFF860B9607A602DE034
:104FD000F86800F0BFF80346002B01D001232DE054
:104FE000BB68B3F1FF3F21D0FCF7CCFD02467B68E4
:104FF000D31ABA689A4202D3BB68002B16D1FB6859
:1050000000221A63FB68202283F83D20FB680022FF
:1050100083F83E20FB681B6C43F02002FB681A6497
:10502000FB68002283F83C20012307E0FB681B6833
:105030005B6903F00403042BCAD100231846103720
:10504000BD4680BD80B485B000AF78600023FB60B2
:10505000134B1B68DB08134AA2FB03231A0A1346EF
:105060009B001344FB60FB68013BFB60FB68002B6B
:1050700007D17B681B6C43F020027B681A64012314
:1050800008E07B681B681B6803F40073B3F5007FBE
:10509000E9D0002318461437BD4680BC704700BFD6
:1050A0000800002089B5F81480B584B000AFF8601E
:1050B000B9607A6042E0FB681B685B6903F010032B
:1050C000102B19D1FB681B686FF010025A61FB6846
:1050D00000221A63FB68202283F83D20FB6800222F
:1050E00083F83E20FB681A6CFB681A64FB68002298
:1050F00083F83C20012329E0FCF744FD02467B684D
:10510000D31ABA689A4202D3BB68002B16D1FB6847
:1051100000221A63FB68202283F83D20FB680022EE
:1051200083F83E20FB681B6C43F02002FB681A6486
:10513000FB68002283F83C20012307E0FB681B6822
:105140005B6903F04003402BB5D1002318461037AC
:10515000BD4680BD80B483B000AF78607B681B68BB
:105160005B6903F48063B3F5806F1BD17B681B68B8
:105170006FF480625A617B6800221A637B68202288
:1051800083F83D207B68002283F83E207B681B6CFF
:1051900043F004027B681A647B68002283F83C2099
:1051A000012300E0002318460C37BD4680BC704741
:1051B00080B483B000AF78607B68DB6AB3F52A0FF8
:1051C00003D17B680122DA6207E07B68DB6AB3F116
:1051D0002A4F02D17B680822DA6200BF0C37BD4635
:1051E00080BC704780B586B000AF78607B68002BCC
:1051F00001D1012372E27B681B6803F00103002BDD
:1052000000F08780924B5B6803F00C03042B0CD0FA
:105210008F4B5B6803F00C03082B12D18C4B5B683F
:1052200003F48033B3F5803F0BD1894B1B6803F443
:105230000033002B6CD07B685B68002B68D10123A6
:105240004CE27B685B68B3F5803F06D1804B1B68FE
:105250007F4A43F4803313602EE07B685B68002B49
:105260000CD17B4B1B687A4A23F480331360784B54
:105270001B68774A23F4802313601DE07B685B681A
:10528000B3F5A02F0CD1724B1B68714A43F48023F5
:1052900013606F4B1B686E4A43F4803313600BE05E
:1052A0006B4B1B686A4A23F480331360684B1B689E
:1052B000674A23F4802313607B685B68002B13D05C
:1052C000FCF760FC386108E0FCF75CFC02463B69D7
:1052D000D31A642B01D9032300E25D4B1B6803F44E
:1052E0000033002BF0D014E0FCF74CFC386108E0F0
:1052F000FCF748FC02463B69D31A642B01D903230F
:10530000ECE1534B1B6803F40033002BF0D100E0B9
:1053100000BF7B681B6803F00203002B63D04C4B7B
:105320005B6803F00C03002B0BD0494B5B6803F068
:105330000C03082B1CD1464B5B6803F48033002B15
:1053400016D1434B1B6803F00203002B05D07B688A
:105350001B69012B01D00123C0E13D4B1B6823F0E9
:10536000F8027B685B69DB00394913430B603AE064
:105370007B681B69002B20D0364B01221A60FCF79A
:1053800001FC386108E0FCF7FDFB02463B69D31ADB
:10539000022B01D90323A1E12D4B1B6803F002036B
:1053A000002BF0D02A4B1B6823F0F8027B685B6966
:1053B000DB00274913430B6015E0264B00221A60DF
:1053C000FCF7E0FB386108E0FCF7DCFB02463B69D8
:1053D000D31A022B01D9032380E11D4B1B6803F074
:1053E0000203002BF0D17B681B6803F00803002B3D
:1053F0003AD07B689B69002B19D0174B01221A60A9
:10540000FCF7C0FB386108E0FCF7BCFB02463B69D7
:10541000D31A022B01D9032360E10D4B5B6A03F021
:105420000203002BF0D0012000F0D8FA1CE00A4B58
:1054300000221A60FCF7A6FB38610FE0FCF7A2FB24
:1054400002463B69D31A022B08D9032346E100BF69
:10545000001002400000424280044242924B5B6ACC
:1054600003F00203002BE9D17B681B6803F00403FF
:10547000002B00F0A6800023FB758B4BDB6903F04B
:105480008053002B0DD1884BDB69874A43F0805352
:10549000D361854BDB6903F08053BB60BB6801239C
:1054A000FB75824B1B6803F48073002B18D17F4B74
:1054B0001B687E4A43F480731360FCF763FB38611A
:1054C00008E0FCF75FFB02463B69D31A642B01D965
:1054D000032303E1754B1B6803F48073002BF0D0AA
:1054E0007B68DB68012B06D16F4B1B6A6E4A43F069
:1054F000010313622DE07B68DB68002B0CD16A4B43
:105500001B6A694A23F001031362674B1B6A664AF0
:1055100023F0040313621CE07B68DB68052B0CD1CD
:10552000614B1B6A604A43F0040313625E4B1B6AC3
:105530005D4A43F0010313620BE05B4B1B6A5A4A5E
:1055400023F001031362584B1B6A574A23F00403EC
:1055500013627B68DB68002B15D0FCF713FB386106
:105560000AE0FCF70FFB02463B69D31A41F288328E
:10557000934201D90323B1E04B4B1B6A03F00203B2
:10558000002BEED014E0FCF7FDFA38610AE0FCF7DE
:10559000F9FA02463B69D31A41F28832934201D9A3
:1055A00003239BE0404B1B6A03F00203002BEED168
:1055B000FB7D012B05D13C4BDB693B4A23F080533B
:1055C000D3617B68DB69002B00F08780364B5B681A
:1055D00003F00C03082B61D07B68DB69022B46D1FA
:1055E000334B00221A60FCF7CDFA386108E0FCF773
:1055F000C9FA02463B69D31A022B01D903236DE095
:10560000294B1B6803F00073002BF0D17B681B6AE9
:10561000B3F5803F08D1244B5B6823F400327B68EC
:105620009B68214913434B601F4B5B6823F4741242
:105630007B68196A7B685B6A0B431B4913434B60A9
:105640001B4B01221A60FCF79DFA386108E0FCF759
:1056500099FA02463B69D31A022B01D903233DE094
:10566000114B1B6803F00073002BF0D035E0104B9A
:1056700000221A60FCF786FA386108E0FCF782FA2B
:1056800002463B69D31A022B01D9032326E0064BBD
:105690001B6803F00073002BF0D11EE07B68DB6910
:1056A000012B07D1012319E00010024000700040D7
:1056B000600042420B4B5B68FB60FB6803F4803286
:1056C0007B681B6A9A4206D1FB6803F470127B6800
:1056D0005B6A9A4201D0012300E000231846183784
:1056E000BD4680BD0010024080B584B000AF786038
:1056F00039607B68002B01D10123D0E06A4B1B6825
:1057000003F007033A689A4210D9674B1B6823F0ED
:10571000070265493B6813430B60634B1B6803F04A
:1057200007033A689A4201D00123B8E07B681B68FE
:1057300003F00203002B20D07B681B6803F00403F6
:10574000002B05D0594B5B68584A43F4E063536023
:105750007B681B6803F00803002B05D0534B5B6884
:10576000524A43F460535360504B5B6823F0F0029D
:105770007B689B684D4913434B607B681B6803F053
:105780000103002B40D07B685B68012B07D1474B9E
:105790001B6803F40033002B15D101237FE07B68E5
:1057A0005B68022B07D1414B1B6803F00073002B91
:1057B00009D1012373E03D4B1B6803F00203002B6A
:1057C00001D101236BE0394B5B6823F003027B6856
:1057D0005B68364913434B60FCF7D4F9F8600AE084
:1057E000FCF7D0F90246FB68D31A41F288329342A3
:1057F00001D9032353E02D4B5B6803F00C027B6857
:105800005B689B009A42EBD1274B1B6803F00703B0
:105810003A689A4210D2244B1B6823F007022249AF
:105820003B6813430B60204B1B6803F007033A6887
:105830009A4201D0012332E07B681B6803F0040325
:10584000002B08D0194B5B6823F4E0627B68DB68AF
:10585000164913434B607B681B6803F00803002B59
:1058600009D0124B5B6823F460527B681B69DB0034
:105870000E4913434B6000F021F802460B4B5B6866
:105880001B0903F00F030A49CB5C22FA03F3094A10
:105890001360094B1B681846FCF732F900231846C1
:1058A0001037BD4680BD00BF0020024000100240FE
:1058B00030920008080000200C00002090B48AB04C
:1058C00000AF294B3C1D0FCB84E80F0040F20123B1
:1058D0003B800023FB610023BB6100237B6200232C
:1058E0007B6100233B62214B5B68FB61FB6903F03A
:1058F0000C03042B02D0082B03D02BE01C4B3B6283
:105900002BE0FB699B0C03F00F0328333B4413F897
:10591000243C7B61FB6903F48033002B12D0134BD2
:105920005B685B0C03F0010328333B4413F8283C0D
:10593000BB617B690E4A03FB02F2BB69B2FBF3F366
:105940007B6204E07B690B4A02FB03F37B627B6AA8
:105950003B6202E0064B3B6200BF3B6A18462837B9
:10596000BD4690BC704700BF209200080010024066
:1059700000127A0000093D0080B400AF024B1B68A2
:105980001846BD4680BC70470800002080B500AFB7
:10599000FFF7F2FF0246054B5B681B0A03F00703A3
:1059A0000349CB5C22FA03F3184680BD0010024085
:1059B0004092000880B500AFFFF7DEFF0246054BBE
:1059C0005B68DB0A03F007030349CB5C22FA03F3AD
:1059D000184680BD001002404092000880B485B097
:1059E00000AF78600A4B1B680A4AA2FB03235B0ADC
:1059F0007A6802FB03F3FB6000BFFB685A1EFA6083
:105A0000002BF9D100BF00BF1437BD4680BC7047E2
:105A100008000020D34D621080B582B000AF7860DE
:105A20007B68002B01D101233FE07B6893F83D3078
:105A3000DBB2002B06D17B68002283F83C2078681B
:105A4000FBF744FE7B68242283F83D207B681B68BB
:105A5000DA687B681B6822F40052DA60786800F02C
:105A600025FC7B681B681A697B681B6822F49042DE
:105A70001A617B681B685A697B681B6822F02A02DE
:105A80005A617B681B68DA687B681B6842F40052C5
:105A9000DA607B6800221A647B68202283F83D204C
:105AA0007B68202283F83E20002318460837BD4635
:105AB00080BD80B58AB002AFF860B9603B60134624
:105AC000FB8000237B61FB6893F83D30DBB2202B29
:105AD0007CD1BB68002B02D0FB88002B01D10123B5
